:0400000080314228E1
:100008007E1480310B1D09280A282B28143070060D
:100018007104031D102811282228031022000C1E29
:100028000314031818281B2822000C161D28220068
:100038000C128031D6208031F001F1010130F00737
:100048000030F13D3C30200095000B114028200085
:10005800111F2F2830284028031022000C1F0314DA
:10006800031837283A2822000C173C2822000C13C2
:100078002000111321001D107E1009008031442832
:10008800A83084008030850020308600003087004A
:1000980014308031E12080317030840000308500D8
:1000A80009308031E7208031343084000030850009
:1000B8000C308031E72080317E1020008031ED281F
:1000C800FC30210099051908873968389900230000
:1000D8000C148C100C118C110C1221000C148C10A7
:1000E8000C118C110C120C138C1323008D100D1194
:1000F8008D110D128D120D138D1321000D108D14FD
:100108000D118D110D128D120D138D131D1022005E
:1001180097170330970421001E1103309E0411170E
:100128002000111322008C140C158C150C120C13C2
:100138008C130D108D110D128D128031BC20803161
:100148008031C920803108007E34003430340034D6
:100158006D34003479340034333400345B34003483
:100168005F340034703400347F3400347B3400341E
:1001780022001E1023009E149E161F171E121E1307
:100188001E1519309B009D17080021009512951126
:10019800073095048B170B178B160B113C3020007A
:1001A8009500080021001D141E088F3910389E0084
:1001B80083309D059E179D140800FE0012001E0046
:1001C800FE0BE2280034640080010131890BE82825
:0E01D8000034803164208031F02880314228CC
:020000040001F9
:08000000FF3FFF3FFF3FFF3F00
:04000E00E43FFF3E8E
:00000001FF
