:08000000803102288731E92F4D
:1007A600640080010131890BD42B0034FE00120055
:1007B6001E00FE0BDA2B0034F000700823009A00AE
:1007C6009E1CE62BE72BE32B080022001E102300BD
:1007D6009E149E161F171E121E131E1519309B00FF
:1007E6009D1708007008303E2000CA002E30CB004E
:1007F6007208303ECC007408303ECD002030CE006A
:100806005630CF00D0014A3008007E3400343034F0
:1008160000346D34003479340034333400345B34BE
:1008260000345F340034703400347F3400347B3459
:100836000034F200292C72088600870101088331F2
:10084600DF2384310130F1007108F2077208860057
:1008560087010108031D302C312C1E2C08002100B5
:100866001D141E088F3910389E0083309D059E1773
:100876009D149D183F2C402C3C2C1B08F400F501C0
:100886001C08F600F7017608F700F60174087607EB
:10089600F9007508773DFA00FB01FA1BFB037B089C
:1008A600FC007C08F3007B08F2007A08F100790866
:1008B600F00008000030FB000030FA000030F900BC
:1008C6000030F800701C682C692C712C7408F8072D
:1008D6007508F93D7608FA3D7708FB3D0130F43599
:1008E600F50DF60DF70D890B722C0130F336F20C6F
:1008F600F10CF00C890B792C7308720471047004E6
:10090600031D862C872C652C7B08F3007A08F200E1
:100916007908F1007808F00008002000B400A03043
:1009260086000030870020308400003085001430B7
:10093600F00016001A00F00B9C2C34088600870184
:100946000135203E86008701403FD100413FD2005D
:100956003408023E860087010135203E8600870165
:10096600403FD300413FD4003408043E860087014F
:100976000135203E86008701403FD500413FD60025
:1009860051300800701BC82CCB2C22000C16CD2C25
:1009960022000C12F01AD02CD32C22000C17D52CC6
:1009A60022000C13701AD82CDB2C22008C17DD2C9D
:1009B60022008C13F019E02CE32C22000D14E52CF8
:1009C60022000D107019E82CEB2C22008D15ED2C51
:1009D60022008D11F018F02CF32C22000D16F52CA8
:1009E60022000D1270080139F200F20EF20D0D0808
:1009F6007206DF3972068D000800FC302100990569
:100A0600190887396838990023000C148C100C11CA
:100A16008C110C1221000C148C100C118C110C1260
:100A26000C138C1323008D100D118D110D128D12C8
:100A36000D138D1321000D108D140D118D110D1236
:100A46008D120D138D132200971703309704210082
:100A56001E1103309E0422008C140C158C150C12EA
:100A66000C138C130D108D110D128D128331E8238A
:100A76008531080085310025853184313224853160
:100A860073082000C7007208C6007108C500700808
:100A9600C4004708BB004608BA004508B900440828
:100AA600B8008631E62685312000C9004908843120
:100AB600902485312000C8004908043E860087013D
:100AC600403FF000413FF1004908023E86008701A1
:100AD600403FF200413FF300490886008701403F4E
:100AE600F400413FF5008331F523853184311C2420
:100AF600853120004808853184258531402D803197
:100B06000228F600F401F501760886008701403FC9
:100B1600F000413FF1008431C524853122008C1557
:100B26000D30F300FC30890B962DF30B962D220029
:100B36008C117608023E86008701403FF000413F57
:100B4600F1008431C524853122000C150D30F300E7
:100B5600FC30890BAC2DF30BAC2D22000C11760862
:100B6600043E86008701403FF000413FF10084319A
:100B7600C524853122008C140D30F300FC30890B1E
:100B8600C22DF30BC22D22008C100130F407003069
:100B9600F53D7508803AF30080307302031DD52DAC
:100BA6000A307402031CD82DD92D872D0800200089
:100BB600B701B51FDF2DE02DED2DB209B309B4093C
:100BC600B509B20A0319B30A0319B40A0319B50A17
:100BD600B701B70AB11FF02DF12DFC2DAE09AF09F3
:100BE600B009B109AE0A0319AF0A0319B00A03190D
:100BF600B10A310830042F042E040319032E042EE3
:100C06003D2EB601B60A122E0130AE35AF0DB00D2F
:100C1600B10D890B082E0130FD007D08B607B11F06
:100C2600152E162E072E31083502031D242E3008E8
:100C36003402031D242E2F083302031D242E2E08F2
:100C46003202031C272E282E302E2E08B2022F0821
:100C5600B33B3008B43B3108B53B0130B136B00C7C
:100C6600AF0CAE0C890B312E0130B602031D3C2EA3
:100C76003D2E162E37080319412E422E4D2EB2094F
:100C8600B309B409B509B20A0319B30A0319B40AB8
:100C96000319B50A3508B1003408B0003308AF00AF
:100CA6003208AE0008002000A901A31F5B2E5C2EAF
:100CB600692EA009A109A209A309A00A0319A10A7C
:100CC6000319A20A0319A30AA901A90AA71F6C2ED0
:100CD6006D2E7C2EA409A509A609A709A40A031945
:100CE600A50A0319A60A0319A70A0130FC007C0805
:100CF600A9060030AD000030AC000030AB0000307B
:100D0600AA00230822042104200403198B2E8C2E0A
:100D1600CD2EA801A80A9A2E0130A035A10DA20D4C
:100D2600A30D890B902E0130FC007C08A807A31F99
:100D36009D2E9E2E8F2E0130AA35AB0DAC0DAD0D1E
:100D4600890B9F2E23082702031DB32E2208260295
:100D5600031DB32E21082502031DB32E20082402ED
:100D6600031CB62EB72EC02E2008A4022108A53BD0
:100D76002208A63B2308A73B2A140130A336A20C5F
:100D8600A10CA00C890BC12E0130A802031DCC2E8C
:100D9600CD2E9E2E29080319D12ED22EDD2EAA097C
:100DA600AB09AC09AD09AA0A0319AB0A0319AC0AC7
:100DB6000319AD0A2D08A3002C08A2002B08A100D8
:100DC6002A08A000080000302000B1000030B00062
:100DD6000030AF000A30AE000030A3000030A200A1
:100DE6000430A1000030A0003B08F3003A08F200EE
:100DF6003908F1003808F0000030F7000030F6003E
:100E06000330F500E830F40084315D248631730840
:100E16002000A7007208A6007108A5007008A400AB
:100E260086315626863120002308B5002208B400F4
:100E36002108B3002008B2008531DA25863120006A
:100E46002F08D8002E08D7000030A3000030A200DB
:100E56000430A1000030A0003B08F3003A08F2007D
:100E66003908F1003808F0000030F7000030F600CD
:100E76000330F500E830F40084315D2486317308D0
:100E86002000A7007208A6007108A5007008A4003B
:100E960086315626863120002308C3002208C20068
:100EA6002108C1002008C0000030B1000030B000A9
:100EB6000030AF000A30AE000030A3000030A200C0
:100EC6000030A1000A30A0004308A7004208A6008F
:100ED6004108A5004008A400863156268631200028
:100EE6002308B5002208B4002108B3002008B20088
:100EF6008531DA25863120002F08DA002E08D90040
:100F06000030A3000030A2000430A1000030A00091
:100F16003B08F3003A08F2003908F1003808F000FF
:100F26000030F7000030F6000330F500E830F4003A
:100F360084315D24863173082000A7007208A6005C
:100F46007108A5007008A400863156268631200057
:100F56002308C3002208C2002108C1002008C000DF
:100F66000030A3000030A2000030A1000A30A0002B
:100F76004308A7004208A6004108A5004008A400AF
:100F860086315626863120002308BF002208BE007F
:100F96002108BD002008BC000030A3000030A200DC
:100FA6000030A1000A30A0003F08A7003E08A600B6
:100FB6003D08A5003C08A40086315626863120004F
:100FC6002108DC002008DB005730080008308400C8
:100FD60084308500A03086000030870014308331CD
:100FE600D92387314A30840000308500133083319D
:0A0FF600D3238731200085313D2D03
:020000040001F9
:08000000FF3FFF3FFF3FFF3F00
:04000E00E43FFF3E8E
:00000001FF
