:0400000080312928FA
:100008007E1480310B1D09280A2827281430700611
:100018007104031D102811281F28031022000C1E2C
:100028000314031818281B2822000C161D28220068
:100038000C12F001F1010130F0070030F13D3C30C5
:10004800200095000B117E10090080312B28883084
:10005800840080308500203086000030870014300E
:100068008031BF2080317030840000308500093035
:100078008031C520803134308400003085000C3058
:100088008031C52080317E1020008031B628FC30B8
:1000980021009905190887396838990023000C143C
:1000A8008C100C118C110C1221000C148C100C11DA
:1000B8008C110C120C138C1323008D100D118D1143
:1000C8000D128D120D138D1321000D108D140D11AD
:1000D8008D110D128D120D138D13220097170330F9
:1000E800970421001E1103309E0422008C140C1565
:1000F8008C150C120C138C130D108D110D128D1202
:1001080080319C20803108007E3400343034003443
:100118006D34003479340034333400345B340034C3
:100128005F340034703400347F3400347B3400345E
:1001380022001E1023009E149E161F171E121E1347
:100148001E1519309B009D17080021009512951166
:10015800073095048B170B178B160B113C302000BA
:100168009500080080314B2080318031A9208031F2
:10017800BC2880312928FE0012001E00FE0BC02872
:0E0188000034640080010131890BC628003468
:020000040001F9
:08000000FF3FFF3FFF3FFF3F00
:04000E00E43FFF3E8E
:00000001FF
